{
  "_format": "hh-sol-artifact-1",
  "contractName": "VestingDApp",
  "sourceName": "contracts/vestingDapp.sol",
  "abi": [
    {
      "inputs": [],
      "stateMutability": "nonpayable",
      "type": "constructor"
    },
    {
      "inputs": [
        {
          "internalType": "address",
          "name": "owner",
          "type": "address"
        }
      ],
      "name": "OwnableInvalidOwner",
      "type": "error"
    },
    {
      "inputs": [
        {
          "internalType": "address",
          "name": "account",
          "type": "address"
        }
      ],
      "name": "OwnableUnauthorizedAccount",
      "type": "error"
    },
    {
      "anonymous": false,
      "inputs": [
        {
          "indexed": true,
          "internalType": "address",
          "name": "org",
          "type": "address"
        },
        {
          "indexed": false,
          "internalType": "string",
          "name": "name",
          "type": "string"
        },
        {
          "indexed": false,
          "internalType": "address",
          "name": "token",
          "type": "address"
        }
      ],
      "name": "OrganizationRegistered",
      "type": "event"
    },
    {
      "anonymous": false,
      "inputs": [
        {
          "indexed": true,
          "internalType": "address",
          "name": "previousOwner",
          "type": "address"
        },
        {
          "indexed": true,
          "internalType": "address",
          "name": "newOwner",
          "type": "address"
        }
      ],
      "name": "OwnershipTransferred",
      "type": "event"
    },
    {
      "anonymous": false,
      "inputs": [
        {
          "indexed": true,
          "internalType": "address",
          "name": "org",
          "type": "address"
        },
        {
          "indexed": true,
          "internalType": "address",
          "name": "stakeholder",
          "type": "address"
        }
      ],
      "name": "StakeholderWhitelisted",
      "type": "event"
    },
    {
      "anonymous": false,
      "inputs": [
        {
          "indexed": true,
          "internalType": "address",
          "name": "org",
          "type": "address"
        },
        {
          "indexed": true,
          "internalType": "address",
          "name": "stakeholder",
          "type": "address"
        },
        {
          "indexed": false,
          "internalType": "uint256",
          "name": "amount",
          "type": "uint256"
        }
      ],
      "name": "TokensClaimed",
      "type": "event"
    },
    {
      "anonymous": false,
      "inputs": [
        {
          "indexed": true,
          "internalType": "address",
          "name": "org",
          "type": "address"
        },
        {
          "indexed": false,
          "internalType": "uint256",
          "name": "amount",
          "type": "uint256"
        }
      ],
      "name": "TokensDeposited",
      "type": "event"
    },
    {
      "anonymous": false,
      "inputs": [
        {
          "indexed": true,
          "internalType": "address",
          "name": "org",
          "type": "address"
        },
        {
          "indexed": true,
          "internalType": "address",
          "name": "stakeholder",
          "type": "address"
        },
        {
          "indexed": false,
          "internalType": "uint256",
          "name": "amount",
          "type": "uint256"
        },
        {
          "indexed": false,
          "internalType": "uint256",
          "name": "startTime",
          "type": "uint256"
        },
        {
          "indexed": false,
          "internalType": "uint256",
          "name": "duration",
          "type": "uint256"
        }
      ],
      "name": "VestingScheduleAdded",
      "type": "event"
    },
    {
      "inputs": [
        {
          "internalType": "address",
          "name": "stakeholder",
          "type": "address"
        },
        {
          "internalType": "uint256",
          "name": "amount",
          "type": "uint256"
        },
        {
          "internalType": "uint256",
          "name": "startTime",
          "type": "uint256"
        },
        {
          "internalType": "uint256",
          "name": "duration",
          "type": "uint256"
        }
      ],
      "name": "addStakeholder",
      "outputs": [],
      "stateMutability": "nonpayable",
      "type": "function"
    },
    {
      "inputs": [
        {
          "internalType": "address",
          "name": "org",
          "type": "address"
        }
      ],
      "name": "claimTokens",
      "outputs": [],
      "stateMutability": "nonpayable",
      "type": "function"
    },
    {
      "inputs": [
        {
          "internalType": "uint256",
          "name": "amount",
          "type": "uint256"
        }
      ],
      "name": "depositTokens",
      "outputs": [],
      "stateMutability": "nonpayable",
      "type": "function"
    },
    {
      "inputs": [
        {
          "internalType": "address",
          "name": "",
          "type": "address"
        }
      ],
      "name": "organizationBalances",
      "outputs": [
        {
          "internalType": "uint256",
          "name": "",
          "type": "uint256"
        }
      ],
      "stateMutability": "view",
      "type": "function"
    },
    {
      "inputs": [
        {
          "internalType": "address",
          "name": "",
          "type": "address"
        }
      ],
      "name": "organizations",
      "outputs": [
        {
          "internalType": "string",
          "name": "name",
          "type": "string"
        },
        {
          "internalType": "address",
          "name": "token",
          "type": "address"
        },
        {
          "internalType": "bool",
          "name": "isRegistered",
          "type": "bool"
        }
      ],
      "stateMutability": "view",
      "type": "function"
    },
    {
      "inputs": [],
      "name": "owner",
      "outputs": [
        {
          "internalType": "address",
          "name": "",
          "type": "address"
        }
      ],
      "stateMutability": "view",
      "type": "function"
    },
    {
      "inputs": [
        {
          "internalType": "string",
          "name": "_name",
          "type": "string"
        },
        {
          "internalType": "address",
          "name": "_token",
          "type": "address"
        }
      ],
      "name": "registerOrganization",
      "outputs": [],
      "stateMutability": "nonpayable",
      "type": "function"
    },
    {
      "inputs": [],
      "name": "renounceOwnership",
      "outputs": [],
      "stateMutability": "nonpayable",
      "type": "function"
    },
    {
      "inputs": [
        {
          "internalType": "address",
          "name": "newOwner",
          "type": "address"
        }
      ],
      "name": "transferOwnership",
      "outputs": [],
      "stateMutability": "nonpayable",
      "type": "function"
    },
    {
      "inputs": [
        {
          "internalType": "address",
          "name": "",
          "type": "address"
        },
        {
          "internalType": "address",
          "name": "",
          "type": "address"
        }
      ],
      "name": "vestingSchedules",
      "outputs": [
        {
          "internalType": "uint256",
          "name": "startTime",
          "type": "uint256"
        },
        {
          "internalType": "uint256",
          "name": "duration",
          "type": "uint256"
        },
        {
          "internalType": "uint256",
          "name": "amount",
          "type": "uint256"
        },
        {
          "internalType": "bool",
          "name": "claimed",
          "type": "bool"
        }
      ],
      "stateMutability": "view",
      "type": "function"
    },
    {
      "inputs": [
        {
          "internalType": "address",
          "name": "stakeholder",
          "type": "address"
        }
      ],
      "name": "whitelistStakeholder",
      "outputs": [],
      "stateMutability": "nonpayable",
      "type": "function"
    },
    {
      "inputs": [
        {
          "internalType": "address",
          "name": "",
          "type": "address"
        },
        {
          "internalType": "address",
          "name": "",
          "type": "address"
        }
      ],
      "name": "whitelisted",
      "outputs": [
        {
          "internalType": "bool",
          "name": "",
          "type": "bool"
        }
      ],
      "stateMutability": "view",
      "type": "function"
    }
  ],
  "bytecode": "0x60806040523480156200001157600080fd5b5033600073ffffffffffffffffffffffffffffffffffffffff168173ffffffffffffffffffffffffffffffffffffffff1603620000885760006040517f1e4fbdf70000000000000000000000000000000000000000000000000000000081526004016200007f9190620001a9565b60405180910390fd5b6200009981620000a060201b60201c565b50620001c6565b60008060009054906101000a900473ffffffffffffffffffffffffffffffffffffffff169050816000806101000a81548173ffffffffffffffffffffffffffffffffffffffff021916908373ffffffffffffffffffffffffffffffffffffffff1602179055508173ffffffffffffffffffffffffffffffffffffffff168173ffffffffffffffffffffffffffffffffffffffff167f8be0079c531659141344cd1fd0a4f28419497f9722a3daafe3b4186f6b6457e060405160405180910390a35050565b600073ffffffffffffffffffffffffffffffffffffffff82169050919050565b6000620001918262000164565b9050919050565b620001a38162000184565b82525050565b6000602082019050620001c0600083018462000198565b92915050565b61255c80620001d66000396000f3fe608060405234801561001057600080fd5b50600436106100b45760003560e01c806372ccf7f11161007157806372ccf7f1146101795780638da5cb5b146101ac578063bc120fe7146101ca578063dd49756e146101fa578063df8de3e714610216578063f2fde38b14610232576100b4565b806326ea4bf6146100b95780633b7cd610146100d557806357cfb10a146100f15780635872a4de146101215780635a1f74061461013d578063715018a61461016f575b600080fd5b6100d360048036038101906100ce91906115d8565b61024e565b005b6100ef60048036038101906100ea919061174b565b61043e565b005b61010b600480360381019061010691906115d8565b610684565b60405161011891906117c0565b60405180910390f35b61013b60048036038101906101369190611807565b61069c565b005b610157600480360381019061015291906115d8565b610ba7565b60405161016693929190611917565b60405180910390f35b610177610c86565b005b610193600480360381019061018e9190611955565b610c9a565b6040516101a39493929190611995565b60405180910390f35b6101b4610ce4565b6040516101c191906119da565b60405180910390f35b6101e460048036038101906101df9190611955565b610d0d565b6040516101f191906119f5565b60405180910390f35b610214600480360381019061020f9190611a10565b610d3c565b005b610230600480360381019061022b91906115d8565b610fdc565b005b61024c600480360381019061024791906115d8565b61138d565b005b600160003373ffffffffffffffffffffffffffffffffffffffff1673ffffffffffffffffffffffffffffffffffffffff16815260200190815260200160002060010160149054906101000a900460ff166102dd576040517f08c379a00000000000000000000000000000000000000000000000000000000081526004016102d490611a89565b60405180910390fd5b600073ffffffffffffffffffffffffffffffffffffffff168173ffffffffffffffffffffffffffffffffffffffff160361034c576040517f08c379a000000000000000000000000000000000000000000000000000000000815260040161034390611af5565b60405180910390fd5b6001600360003373ffffffffffffffffffffffffffffffffffffffff1673ffffffffffffffffffffffffffffffffffffffff16815260200190815260200160002060008373ffffffffffffffffffffffffffffffffffffffff1673ffffffffffffffffffffffffffffffffffffffff16815260200190815260200160002060006101000a81548160ff0219169083151502179055508073ffffffffffffffffffffffffffffffffffffffff163373ffffffffffffffffffffffffffffffffffffffff167f64295e91ae78d05ca6380208b0faad7ec7f098a2a622ff90a84e8369c9e95d2860405160405180910390a350565b600160003373ffffffffffffffffffffffffffffffffffffffff1673ffffffffffffffffffffffffffffffffffffffff16815260200190815260200160002060010160149054906101000a900460ff16156104ce576040517f08c379a00000000000000000000000000000000000000000000000000000000081526004016104c590611b61565b60405180910390fd5b600073ffffffffffffffffffffffffffffffffffffffff168173ffffffffffffffffffffffffffffffffffffffff160361053d576040517f08c379a000000000000000000000000000000000000000000000000000000000815260040161053490611bcd565b60405180910390fd5b60405180606001604052808381526020018273ffffffffffffffffffffffffffffffffffffffff16815260200160011515815250600160003373ffffffffffffffffffffffffffffffffffffffff1673ffffffffffffffffffffffffffffffffffffffff16815260200190815260200160002060008201518160000190816105c59190611df9565b5060208201518160010160006101000a81548173ffffffffffffffffffffffffffffffffffffffff021916908373ffffffffffffffffffffffffffffffffffffffff16021790555060408201518160010160146101000a81548160ff0219169083151502179055509050503373ffffffffffffffffffffffffffffffffffffffff167fa16820b56291f101c8da397bf6b29553b1cbc6a82bbfd914b3074f5461b732608383604051610678929190611ecb565b60405180910390a25050565b60046020528060005260406000206000915090505481565b600160003373ffffffffffffffffffffffffffffffffffffffff1673ffffffffffffffffffffffffffffffffffffffff16815260200190815260200160002060010160149054906101000a900460ff1661072b576040517f08c379a000000000000000000000000000000000000000000000000000000000815260040161072290611a89565b60405180910390fd5b600360003373ffffffffffffffffffffffffffffffffffffffff1673ffffffffffffffffffffffffffffffffffffffff16815260200190815260200160002060008573ffffffffffffffffffffffffffffffffffffffff1673ffffffffffffffffffffffffffffffffffffffff16815260200190815260200160002060009054906101000a900460ff166107f4576040517f08c379a00000000000000000000000000000000000000000000000000000000081526004016107eb90611f47565b60405180910390fd5b6000600260003373ffffffffffffffffffffffffffffffffffffffff1673ffffffffffffffffffffffffffffffffffffffff16815260200190815260200160002060008673ffffffffffffffffffffffffffffffffffffffff1673ffffffffffffffffffffffffffffffffffffffff16815260200190815260200160002060020154146108b6576040517f08c379a00000000000000000000000000000000000000000000000000000000081526004016108ad90611fb3565b60405180910390fd5b600083116108f9576040517f08c379a00000000000000000000000000000000000000000000000000000000081526004016108f09061201f565b60405180910390fd5b4282101561093c576040517f08c379a00000000000000000000000000000000000000000000000000000000081526004016109339061208b565b60405180910390fd5b6000811161097f576040517f08c379a0000000000000000000000000000000000000000000000000000000008152600401610976906120f7565b60405180910390fd5b82600460003373ffffffffffffffffffffffffffffffffffffffff1673ffffffffffffffffffffffffffffffffffffffff168152602001908152602001600020541015610a01576040517f08c379a00000000000000000000000000000000000000000000000000000000081526004016109f890612163565b60405180910390fd5b604051806080016040528083815260200182815260200184815260200160001515815250600260003373ffffffffffffffffffffffffffffffffffffffff1673ffffffffffffffffffffffffffffffffffffffff16815260200190815260200160002060008673ffffffffffffffffffffffffffffffffffffffff1673ffffffffffffffffffffffffffffffffffffffff16815260200190815260200160002060008201518160000155602082015181600101556040820151816002015560608201518160030160006101000a81548160ff02191690831515021790555090505082600460003373ffffffffffffffffffffffffffffffffffffffff1673ffffffffffffffffffffffffffffffffffffffff1681526020019081526020016000206000828254610b3191906121b2565b925050819055508373ffffffffffffffffffffffffffffffffffffffff163373ffffffffffffffffffffffffffffffffffffffff167fac30c3d1248bcda97fff4ec52de3527f92b4ee9828722e7336045b87215ab10e858585604051610b99939291906121e6565b60405180910390a350505050565b6001602052806000526040600020600091509050806000018054610bca90611c1c565b80601f0160208091040260200160405190810160405280929190818152602001828054610bf690611c1c565b8015610c435780601f10610c1857610100808354040283529160200191610c43565b820191906000526020600020905b815481529060010190602001808311610c2657829003601f168201915b5050505050908060010160009054906101000a900473ffffffffffffffffffffffffffffffffffffffff16908060010160149054906101000a900460ff16905083565b610c8e611413565b610c98600061149a565b565b6002602052816000526040600020602052806000526040600020600091509150508060000154908060010154908060020154908060030160009054906101000a900460ff16905084565b60008060009054906101000a900473ffffffffffffffffffffffffffffffffffffffff16905090565b60036020528160005260406000206020528060005260406000206000915091509054906101000a900460ff1681565b600160003373ffffffffffffffffffffffffffffffffffffffff1673ffffffffffffffffffffffffffffffffffffffff16815260200190815260200160002060010160149054906101000a900460ff16610dcb576040517f08c379a0000000000000000000000000000000000000000000000000000000008152600401610dc290611a89565b60405180910390fd5b60008111610e0e576040517f08c379a0000000000000000000000000000000000000000000000000000000008152600401610e059061201f565b60405180910390fd5b6000600160003373ffffffffffffffffffffffffffffffffffffffff1673ffffffffffffffffffffffffffffffffffffffff16815260200190815260200160002060010160009054906101000a900473ffffffffffffffffffffffffffffffffffffffff1690508073ffffffffffffffffffffffffffffffffffffffff166323b872dd3330856040518463ffffffff1660e01b8152600401610eb29392919061221d565b6020604051808303816000875af1158015610ed1573d6000803e3d6000fd5b505050506040513d601f19601f82011682018060405250810190610ef59190612280565b610f34576040517f08c379a0000000000000000000000000000000000000000000000000000000008152600401610f2b906122f9565b60405180910390fd5b81600460003373ffffffffffffffffffffffffffffffffffffffff1673ffffffffffffffffffffffffffffffffffffffff1681526020019081526020016000206000828254610f839190612319565b925050819055503373ffffffffffffffffffffffffffffffffffffffff167f59062170a285eb80e8c6b8ced60428442a51910635005233fc4ce084a475845e83604051610fd091906117c0565b60405180910390a25050565b600160008273ffffffffffffffffffffffffffffffffffffffff1673ffffffffffffffffffffffffffffffffffffffff16815260200190815260200160002060010160149054906101000a900460ff1661106b576040517f08c379a000000000000000000000000000000000000000000000000000000000815260040161106290612399565b60405180910390fd5b6000600260008373ffffffffffffffffffffffffffffffffffffffff1673ffffffffffffffffffffffffffffffffffffffff16815260200190815260200160002060003373ffffffffffffffffffffffffffffffffffffffff1673ffffffffffffffffffffffffffffffffffffffff16815260200190815260200160002090506000816002015411611132576040517f08c379a000000000000000000000000000000000000000000000000000000000815260040161112990612405565b60405180910390fd5b8060030160009054906101000a900460ff1615611184576040517f08c379a000000000000000000000000000000000000000000000000000000000815260040161117b90612471565b60405180910390fd5b806001015481600001546111989190612319565b4210156111da576040517f08c379a00000000000000000000000000000000000000000000000000000000081526004016111d1906124dd565b60405180910390fd5b60018160030160006101000a81548160ff0219169083151502179055506000600160008473ffffffffffffffffffffffffffffffffffffffff1673ffffffffffffffffffffffffffffffffffffffff16815260200190815260200160002060010160009054906101000a900473ffffffffffffffffffffffffffffffffffffffff1690508073ffffffffffffffffffffffffffffffffffffffff1663a9059cbb3384600201546040518363ffffffff1660e01b815260040161129d9291906124fd565b6020604051808303816000875af11580156112bc573d6000803e3d6000fd5b505050506040513d601f19601f820116820180604052508101906112e09190612280565b61131f576040517f08c379a0000000000000000000000000000000000000000000000000000000008152600401611316906122f9565b60405180910390fd5b3373ffffffffffffffffffffffffffffffffffffffff168373ffffffffffffffffffffffffffffffffffffffff167fa86305abc2db271df4609aa86a8d044bc11fb36939841bfdad6c1ab2b26e9471846002015460405161138091906117c0565b60405180910390a3505050565b611395611413565b600073ffffffffffffffffffffffffffffffffffffffff168173ffffffffffffffffffffffffffffffffffffffff16036114075760006040517f1e4fbdf70000000000000000000000000000000000000000000000000000000081526004016113fe91906119da565b60405180910390fd5b6114108161149a565b50565b61141b61155e565b73ffffffffffffffffffffffffffffffffffffffff16611439610ce4565b73ffffffffffffffffffffffffffffffffffffffff16146114985761145c61155e565b6040517f118cdaa700000000000000000000000000000000000000000000000000000000815260040161148f91906119da565b60405180910390fd5b565b60008060009054906101000a900473ffffffffffffffffffffffffffffffffffffffff169050816000806101000a81548173ffffffffffffffffffffffffffffffffffffffff021916908373ffffffffffffffffffffffffffffffffffffffff1602179055508173ffffffffffffffffffffffffffffffffffffffff168173ffffffffffffffffffffffffffffffffffffffff167f8be0079c531659141344cd1fd0a4f28419497f9722a3daafe3b4186f6b6457e060405160405180910390a35050565b600033905090565b6000604051905090565b600080fd5b600080fd5b600073ffffffffffffffffffffffffffffffffffffffff82169050919050565b60006115a58261157a565b9050919050565b6115b58161159a565b81146115c057600080fd5b50565b6000813590506115d2816115ac565b92915050565b6000602082840312156115ee576115ed611570565b5b60006115fc848285016115c3565b91505092915050565b600080fd5b600080fd5b6000601f19601f8301169050919050565b7f4e487b7100000000000000000000000000000000000000000000000000000000600052604160045260246000fd5b6116588261160f565b810181811067ffffffffffffffff8211171561167757611676611620565b5b80604052505050565b600061168a611566565b9050611696828261164f565b919050565b600067ffffffffffffffff8211156116b6576116b5611620565b5b6116bf8261160f565b9050602081019050919050565b82818337600083830152505050565b60006116ee6116e98461169b565b611680565b90508281526020810184848401111561170a5761170961160a565b5b6117158482856116cc565b509392505050565b600082601f83011261173257611731611605565b5b81356117428482602086016116db565b91505092915050565b6000806040838503121561176257611761611570565b5b600083013567ffffffffffffffff8111156117805761177f611575565b5b61178c8582860161171d565b925050602061179d858286016115c3565b9150509250929050565b6000819050919050565b6117ba816117a7565b82525050565b60006020820190506117d560008301846117b1565b92915050565b6117e4816117a7565b81146117ef57600080fd5b50565b600081359050611801816117db565b92915050565b6000806000806080858703121561182157611820611570565b5b600061182f878288016115c3565b9450506020611840878288016117f2565b9350506040611851878288016117f2565b9250506060611862878288016117f2565b91505092959194509250565b600081519050919050565b600082825260208201905092915050565b60005b838110156118a857808201518184015260208101905061188d565b60008484015250505050565b60006118bf8261186e565b6118c98185611879565b93506118d981856020860161188a565b6118e28161160f565b840191505092915050565b6118f68161159a565b82525050565b60008115159050919050565b611911816118fc565b82525050565b6000606082019050818103600083015261193181866118b4565b905061194060208301856118ed565b61194d6040830184611908565b949350505050565b6000806040838503121561196c5761196b611570565b5b600061197a858286016115c3565b925050602061198b858286016115c3565b9150509250929050565b60006080820190506119aa60008301876117b1565b6119b760208301866117b1565b6119c460408301856117b1565b6119d16060830184611908565b95945050505050565b60006020820190506119ef60008301846118ed565b92915050565b6000602082019050611a0a6000830184611908565b92915050565b600060208284031215611a2657611a25611570565b5b6000611a34848285016117f2565b91505092915050565b7f4e6f7420612072656769737465726564206f7267616e697a6174696f6e000000600082015250565b6000611a73601d83611879565b9150611a7e82611a3d565b602082019050919050565b60006020820190508181036000830152611aa281611a66565b9050919050565b7f496e76616c6964207374616b65686f6c64657220616464726573730000000000600082015250565b6000611adf601b83611879565b9150611aea82611aa9565b602082019050919050565b60006020820190508181036000830152611b0e81611ad2565b9050919050565b7f416c726561647920726567697374657265640000000000000000000000000000600082015250565b6000611b4b601283611879565b9150611b5682611b15565b602082019050919050565b60006020820190508181036000830152611b7a81611b3e565b9050919050565b7f496e76616c696420746f6b656e20616464726573730000000000000000000000600082015250565b6000611bb7601583611879565b9150611bc282611b81565b602082019050919050565b60006020820190508181036000830152611be681611baa565b9050919050565b7f4e487b7100000000000000000000000000000000000000000000000000000000600052602260045260246000fd5b60006002820490506001821680611c3457607f821691505b602082108103611c4757611c46611bed565b5b50919050565b60008190508160005260206000209050919050565b60006020601f8301049050919050565b600082821b905092915050565b600060088302611caf7fffffffffffffffffffffffffffffffffffffffffffffffffffffffffffffffff82611c72565b611cb98683611c72565b95508019841693508086168417925050509392505050565b6000819050919050565b6000611cf6611cf1611cec846117a7565b611cd1565b6117a7565b9050919050565b6000819050919050565b611d1083611cdb565b611d24611d1c82611cfd565b848454611c7f565b825550505050565b600090565b611d39611d2c565b611d44818484611d07565b505050565b5b81811015611d6857611d5d600082611d31565b600181019050611d4a565b5050565b601f821115611dad57611d7e81611c4d565b611d8784611c62565b81016020851015611d96578190505b611daa611da285611c62565b830182611d49565b50505b505050565b600082821c905092915050565b6000611dd060001984600802611db2565b1980831691505092915050565b6000611de98383611dbf565b9150826002028217905092915050565b611e028261186e565b67ffffffffffffffff811115611e1b57611e1a611620565b5b611e258254611c1c565b611e30828285611d6c565b600060209050601f831160018114611e635760008415611e51578287015190505b611e5b8582611ddd565b865550611ec3565b601f198416611e7186611c4d565b60005b82811015611e9957848901518255600182019150602085019450602081019050611e74565b86831015611eb65784890151611eb2601f891682611dbf565b8355505b6001600288020188555050505b505050505050565b60006040820190508181036000830152611ee581856118b4565b9050611ef460208301846118ed565b9392505050565b7f5374616b65686f6c646572206e6f742077686974656c69737465640000000000600082015250565b6000611f31601b83611879565b9150611f3c82611efb565b602082019050919050565b60006020820190508181036000830152611f6081611f24565b9050919050565b7f56657374696e67207363686564756c6520616c72656164792065786973747300600082015250565b6000611f9d601f83611879565b9150611fa882611f67565b602082019050919050565b60006020820190508181036000830152611fcc81611f90565b9050919050565b7f416d6f756e74206d7573742062652067726561746572207468616e2030000000600082015250565b6000612009601d83611879565b915061201482611fd3565b602082019050919050565b6000602082019050818103600083015261203881611ffc565b9050919050565b7f53746172742074696d65206d75737420626520696e2074686520667574757265600082015250565b6000612075602083611879565b91506120808261203f565b602082019050919050565b600060208201905081810360008301526120a481612068565b9050919050565b7f4475726174696f6e206d7573742062652067726561746572207468616e203000600082015250565b60006120e1601f83611879565b91506120ec826120ab565b602082019050919050565b60006020820190508181036000830152612110816120d4565b9050919050565b7f496e73756666696369656e7420746f6b656e2062616c616e6365000000000000600082015250565b600061214d601a83611879565b915061215882612117565b602082019050919050565b6000602082019050818103600083015261217c81612140565b9050919050565b7f4e487b7100000000000000000000000000000000000000000000000000000000600052601160045260246000fd5b60006121bd826117a7565b91506121c8836117a7565b92508282039050818111156121e0576121df612183565b5b92915050565b60006060820190506121fb60008301866117b1565b61220860208301856117b1565b61221560408301846117b1565b949350505050565b600060608201905061223260008301866118ed565b61223f60208301856118ed565b61224c60408301846117b1565b949350505050565b61225d816118fc565b811461226857600080fd5b50565b60008151905061227a81612254565b92915050565b60006020828403121561229657612295611570565b5b60006122a48482850161226b565b91505092915050565b7f546f6b656e207472616e73666572206661696c65640000000000000000000000600082015250565b60006122e3601583611879565b91506122ee826122ad565b602082019050919050565b60006020820190508181036000830152612312816122d6565b9050919050565b6000612324826117a7565b915061232f836117a7565b925082820190508082111561234757612346612183565b5b92915050565b7f4f7267616e697a6174696f6e206e6f7420726567697374657265640000000000600082015250565b6000612383601b83611879565b915061238e8261234d565b602082019050919050565b600060208201905081810360008301526123b281612376565b9050919050565b7f4e6f2076657374696e67207363686564756c6500000000000000000000000000600082015250565b60006123ef601383611879565b91506123fa826123b9565b602082019050919050565b6000602082019050818103600083015261241e816123e2565b9050919050565b7f416c726561647920636c61696d65640000000000000000000000000000000000600082015250565b600061245b600f83611879565b915061246682612425565b602082019050919050565b6000602082019050818103600083015261248a8161244e565b9050919050565b7f56657374696e6720706572696f64206e6f7420656e6465640000000000000000600082015250565b60006124c7601883611879565b91506124d282612491565b602082019050919050565b600060208201905081810360008301526124f6816124ba565b9050919050565b600060408201905061251260008301856118ed565b61251f60208301846117b1565b939250505056fea2646970667358221220aff60bb5be68e99163547b9fd4780cf6f26c95bf0831a9c48bab36e43e60da6d64736f6c63430008140033",
  "linkReferences": {},
  "deployedLinkReferences": {}
}